S01800004763634170706C69636174696F6E31382E7372656322
S11300000C942A000C943C000C943C000C943C008E
S11300100C943C000C943C000C943C000C943C006C
S11300200C943C000C943C000C943C000C943C005C
S11300300C943C000C943C000C943C000C943C004C
S11300400C9443000C943C000C943C000C943C0035
S11300500C943C0011241FBECFE5D8E0DEBFCDBF19
S113006020E0A0E6B0E001C01D92A136B207E1F79E
S11300700E946C000C9475000C9400008EE886B904
S113008080EE87B908951F920F920FB60F92112434
S11300908F939F9380916000811107C085B188BBC5
S11300A081E080936000389A10C087EA91E6019756
S11300B0F1F700C0000080916000813029F485B11F
S11300C082BB109260003898369A9F918F910F905E
S11300D00FBE0F901F9018950E943E00369A8FEF26
S11100E081BB87BB78940000FECFF894FFCF5D
S9030000FC
